:020000040800F2
:1000000000000220C1B40008D55E0008E35E0008CD
:10001000E95E0008EF5E0008F55E000800000000E1
:10002000000000000000000000000000FB5E00086F
:10003000095F000800000000175F0008255F000846
:1000400011B5000811B5000811B5000811B5000878
:1000500011B5000811B5000811B5000811B5000868
:1000600011B5000811B5000811B5000811B5000858
:1000700011B5000811B5000811B5000811B5000848
:1000800011B5000811B5000811B5000811B5000838
:1000900011B5000811B5000811B5000811B5000828
:1000A00011B5000811B5000811B5000811B5000818
:1000B000315F000811B5000811B5000811B500083E
:1000C00011B5000811B5000811B5000811B50008F8
:1000D00011B50008455F000811B5000811B500080A
:1000E000595F000811B5000811B5000811B50008E6
:1000F00011B5000811B5000811B5000811B50008C8
:1001000011B5000811B50008695F000811B50008B5
:1001100011B5000811B5000811B5000811B50008A7
:1001200011B5000811B500087D5F000811B5000881
:1001300011B50008000000000000000011B5000823
:1001400011B5000811B5000811B5000811B5000877
:1001500011B5000811B5000811B5000811B5000867
:1001600011B5000811B5000811B5000811B5000857
:1001700011B5000811B5000811B500080000000015
:100180000000000011B500080000000000000000A1
:1001900011B50008000000000000000011B50008C3
:1001A00000000000000000000000000011B5000881
:1001B00011B5000811B5000811B5000811B5000807
:0401C00011B500086D
:1001D00010B5054C237833B9044B13B10448AFF381
:1001E00000800123237010BDB80000200000000033
:1001F000FCC6000808B5034B1BB103490348AFF325
:10020000008008BD00000000BC000020FCC6000803
:10021000034613F8012B002AFBD1181A0138704746
:1002200001F0FF01102A2BDB10F0070F08D010F8A7
:10023000013B013A8B422DD010F0070F42B3F6D1AB
:10024000F0B441EA012141EA014122F007047FF0C4
:1002500000070023F0E80256083C85EA010586EA1B
:10026000010685FA47F5A3FA87F586FA47F6A5FA57
:1002700087F68EB9EED1F0BC01F0FF0102F0070263
:1002800032B110F8013B013A83EA010313B1F8D10E
:100290000020704701387047002D06BF35460338EF
:1002A000073815F0010F07D1013015F4807F02BF28
:1002B000013015F4C03F0130F0BC0138704700BF79
:1002C00081F0004102E000BF83F0004330B54FEA07
:1002D00041044FEA430594EA050F08BF90EA020F74
:1002E0001FBF54EA000C55EA020C7FEA645C7FEA07
:1002F000655C00F0E2804FEA5454D4EB5555B8BF2A
:100300006D420CDD2C4480EA020281EA030382EA9A
:10031000000083EA010180EA020281EA0303362D2C
:1003200088BF30BD11F0004F4FEA01314FF4801CFF
:100330004CEA113102D0404261EB410113F0004F11
:100340004FEA03334CEA133302D0524263EB4303C8
:1003500094EA050F00F0A780A4F10104D5F1200E66
:100360000DDB02FA0EFC22FA05F2801841F10001C1
:1003700003FA0EF2801843FA05F359410EE0A5F195
:1003800020050EF1200E012A03FA0EFC28BF4CF0C6
:10039000020C43FA05F3C01851EBE37101F000457C
:1003A00007D54FF0000EDCF1000C7EEB00006EEB89
:1003B0000101B1F5801F1BD3B1F5001F0CD3490813
:1003C0005FEA30004FEA3C0C04F101044FEA44526A
:1003D00012F5800F80F09A80BCF1004F08BF5FEAF1
:1003E000500C50F1000041EB045141EA050130BDD1
:1003F0005FEA4C0C404141EB010111F4801FA4F174
:100400000104E9D191F0000F04BF01460020B1FAC8
:1004100081F308BF2033A3F10B03B3F120020CDA00
:100420000C3208DD02F1140CC2F10C0201FA0CF0DE
:1004300021FA02F10CE002F11402D8BFC2F1200C43
:1004400001FA02F120FA0CFCDCBF41EA0C019040F9
:10045000E41AA2BF01EB0451294330BD6FEA040442
:100460001F3C1CDA0C340EDC04F11404C4F120022D
:1004700020FA04F001FA02F340EA030021FA04F33F
:1004800045EA030130BDC4F10C04C4F1200220FA96
:1004900002F001FA04F340EA0300294630BD21FAD4
:1004A00004F0294630BD94F0000F83F4801306BF9A
:1004B00081F480110134013D4EE77FEA645C18BF8E
:1004C0007FEA655C29D094EA050F08BF90EA020F25
:1004D00005D054EA000C04BF1946104630BD91EA1D
:1004E000030F1EBF0021002030BD5FEA545C05D120
:1004F0004000494128BF41F0004130BD14F580045F
:100500003CBF01F5801130BD01F0004545F0FE41D2
:1005100041F470014FF0000030BD7FEA645C1ABF07
:10052000194610467FEA655C1CBF0B46024650EA3E
:10053000013406BF52EA033591EA030F41F400216A
:1005400030BD00BF90F0000F04BF0021704730B5F0
:100550004FF4806404F132044FF000054FF00001C5
:1005600050E700BF90F0000F04BF0021704730B586
:100570004FF4806404F1320410F0004548BF40425B
:100580004FF000013EE700BF42004FEAE2014FEAB0
:1005900031014FEA02701FBF12F07F4393F07F4F8B
:1005A00081F06051704792F0000F14BF93F07F4FBD
:1005B000704730B54FF4607401F0004521F0004100
:1005C00020E700BF50EA010208BF704730B54FF086
:1005D00000050AE050EA010208BF704730B511F08B
:1005E000004502D5404261EB41014FF4806404F1C3
:1005F00032045FEA915C3FF4DCAE4FF003025FEA45
:10060000DC0C18BF03325FEADC0C18BF033202EBCC
:10061000DC02C2F1200300FA03FC20FA02F001FA26
:1006200003FE40EA0E0021FA02F11444C1E600BFC5
:1006300070B54FF0FF0C4CF4E06C1CEA11541DBF78
:100640001CEA135594EA0C0F95EA0C0F00F0DEF843
:100650002C4481EA030621EA4C5123EA4C5350EA28
:10066000013518BF52EA033541F4801143F4801379
:1006700038D0A0FB02CE4FF00005E1FB02E506F00A
:100680000042E0FB03E54FF00006E1FB03569CF05F
:10069000000F18BF4EF0010EA4F1FF04B6F5007F65
:1006A00064F5407404D25FEA4E0E6D4146EB0606D7
:1006B00042EAC62141EA55514FEAC52040EA5E5060
:1006C0004FEACE2EB4F1FD0C88BFBCF5E06F1ED80A
:1006D000BEF1004F08BF5FEA500E50F1000041EB41
:1006E000045170BD06F0004646EA010140EA0200EE
:1006F00081EA0301B4EB5C04C2BFD4EB0C0541EA10
:10070000045170BD41F480114FF0000E013C00F324
:10071000AB8014F1360FDEBF002001F0004170BD48
:10072000C4F10004203C35DA0C341BDC04F1140461
:10073000C4F1200500FA05F320FA04F001FA05F2ED
:1007400040EA020001F0004221F0004110EBD370BA
:1007500021FA04F642EB06015EEA430E08BF20EAE6
:10076000D37070BDC4F10C04C4F1200500FA04F389
:1007700020FA05F001FA04F240EA020001F000411B
:1007800010EBD37041F100015EEA430E08BF20EA8E
:10079000D37070BDC4F1200500FA05F24EEA020ED6
:1007A00020FA04F301FA05F243EA020321FA04F005
:1007B00001F0004121FA04F220EA020000EBD370BC
:1007C0005EEA430E08BF20EAD37070BD94F0000FBC
:1007D0000FD101F00046400041EB010111F4801FF0
:1007E00008BF013CF7D041EA060195F0000F18BFA1
:1007F000704703F00046520043EB030313F4801FDD
:1008000008BF013DF7D043EA0603704794EA0C0F96
:100810000CEA135518BF95EA0C0F0CD050EA4106AC
:1008200018BF52EA4306D1D181EA030101F0004129
:100830004FF0000070BD50EA410606BF1046194651
:1008400052EA430619D094EA0C0F02D150EA01365D
:1008500013D195EA0C0F05D152EA03361CBF10469E
:1008600019460AD181EA030101F0004141F0FE413D
:1008700041F470014FF0000070BD41F0FE4141F4C1
:10088000780170BD70B54FF0FF0C4CF4E06C1CEAC1
:1008900011541DBF1CEA135594EA0C0F95EA0C0F76
:1008A00000F0A7F8A4EB050481EA030E52EA033531
:1008B0004FEA013100F088804FEA03334FF0805552
:1008C00045EA131343EA12634FEA022245EA11157F
:1008D00045EA10654FEA00260EF000419D4208BF30
:1008E000964244F1FD0404F5407402D25B084FEADD
:1008F0003202B61A65EB03055B084FEA32024FF489
:1009000080104FF4002CB6EB020E75EB030E22BFE5
:10091000B61A754640EA0C005B084FEA3202B6EBA5
:10092000020E75EB030E22BFB61A754640EA5C0054
:100930005B084FEA3202B6EB020E75EB030E22BFE4
:10094000B61A754640EA9C005B084FEA3202B6EBE5
:10095000020E75EB030E22BFB61A754640EADC00A4
:1009600055EA060E18D04FEA051545EA16754FEA06
:1009700006164FEAC30343EA52734FEAC2025FEA24
:100980001C1CC0D111F4801F0BD141EA00014FF0B3
:1009900000004FF0004CB6E711F4801F04BF014384
:1009A0000020B4F1FD0C88BFBCF5E06F3FF6AFAEA0
:1009B000B5EB030C04BFB6EB020C5FEA500C50F130
:1009C000000041EB045170BD0EF0004E4EEA1131B3
:1009D00014EB5C04C2BFD4EB0C0541EA045170BDBA
:1009E00041F480114FF0000E013C90E645EA060EFE
:1009F0008DE60CEA135594EA0C0F08BF95EA0C0F2C
:100A00003FF43BAF94EA0C0F0AD150EA01347FF473
:100A100034AF95EA0C0F7FF425AF104619462CE74A
:100A200095EA0C0F06D152EA03353FF4FDAE1046AD
:100A3000194622E750EA410618BF52EA43067FF4FE
:100A4000C5AE50EA41047FF40DAF52EA43057FF48E
:100A5000EBAE12E74FEA4102B2F1E04324BFB3F537
:100A6000001CDCF1FE5C0DD901F0004C4FEAC00225
:100A70004CEA5070B2F1004F40EB830008BF20F009
:100A80000100704711F0804F21D113F13872BCBFC3
:100A900001F00040704741F480114FEA5252C2F118
:100AA0001802C2F1200C10FA0CF320FA02F018BF61
:100AB00040F001004FEAC1234FEAD32303FA0CFCB4
:100AC00040EA0C0023FA02F34FEA4303CCE77FEA43
:100AD000625307D150EA01331EBF4FF0FE4040F48D
:100AE0004000704701F0004040F0FE4040F400003C
:100AF000704700BF53B94AB9002908BF00281CBF7E
:100B00004FF0FF314FF0FF3000F07AB9ADF1080C33
:100B10006DE904CE00F006F8DDF804E0DDE902231B
:100B200004B070472DE9F0478C460D460446089EF8
:100B3000002B51D18A4217466DD9B2FA82FEBEF11E
:100B4000000F0BD0CEF1200C01FA0EF520FA0CFCB0
:100B500002FA0EF74CEA050C00FA0EF44FEA174AB7
:100B6000250CBCFBFAF81FFA87F90AFB18CC45EAFA
:100B70000C4508FB09F3AB420AD9ED1908F1FF3225
:100B800080F02381AB4240F22081A8F102083D446D
:100B9000ED1AA4B2B5FBFAF00AFB105544EA05447D
:100BA00000FB09F9A14509D9E41900F1FF3380F0F0
:100BB0000A81A14540F2078102383C44A4EB0904B4
:100BC00040EA08400021002E61D024FA0EF40023F0
:100BD00034607360BDE8F0878B4207D9002E54D093
:100BE000002186E821000846BDE8F087B3FA83F1CA
:100BF000002940F08E80AB4202D3824200F2FA809C
:100C0000841A65EB03050120AC46002E3FD086E830
:100C10001010BDE8F08712B90127B7FBF2F7B7FA59
:100C200087FEBEF1000F34D1EB1B3A0C1FFA87FC94
:100C30000121B3FBF2F8250C02FB183345EA03450A
:100C40000CFB08F3AB4207D9ED1908F1FF3002D2D3
:100C5000AB4200F2D1808046ED1AA3B2B5FBF2F0B0
:100C600002FB105543EA05440CFB00FCA44507D9E0
:100C7000E41900F1FF3302D2A44500F2B88018460F
:100C8000A4EB0C0440EA08409DE731463046BDE83D
:100C9000F087CEF1200405FA0EF307FA0EF720FADA
:100CA00004F83A0C25FA04F448EA0308B4FBF2F11C
:100CB0004FEA184502FB11441FFA87FC45EA044538
:100CC00001FB0CF3AB4200FA0EF409D9ED1901F166
:100CD000FF3080F08A80AB4240F2878002393D4489
:100CE000EB1A1FFA88F5B3FBF2F002FB103345EA6A
:100CF000034500FB0CF3AB4207D9ED1900F1FF38B7
:100D00006FD2AB426DD902383D44EB1A40EA014143
:100D10008FE7C1F1200722FA07F88B4005FA01F4AA
:100D200048EA030320FA07FE4FEA134CFD404EEA5F
:100D3000040EB5FBFCF94FEA1E440CFB19551FFAD3
:100D400083F844EA054509FB08F4AC4202FA01F2D3
:100D500000FA01FA08D9ED1809F1FF3043D2AC428C
:100D600041D9A9F102091D442D1B1FFA8EFEB5FBC6
:100D7000FCF00CFB10554EEA054400FB08F8A045BA
:100D800007D9E41800F1FF3529D2A04527D9023848
:100D90001C4440EA0940A4EB0804A0FB02894C452E
:100DA000C6464D4615D312D056B1BAEB0E0364EBCE
:100DB000050404FA07F7CB401F43CC40376074604A
:100DC0000021BDE8F0871846F8E69046E0E6C24507
:100DD000EAD2B8EB020E69EB03050138E4E72846D6
:100DE000D7E7404691E78146BEE7014678E70238FB
:100DF0003C4445E7084608E7A8F102083D442BE7D4
:100E0000704700BF80B582B000AF78605422796827
:100E100003480AF0A9FB00BF0837BD4680BD00BFEC
:100E2000D400002080B586B002AF03463960FB7164
:100E30001346BB71D023FB73FB793B73FB7B99B2E9
:100E400007F10C020A2300930123094806F04CFD28
:100E5000FB7B99B2BB799AB26423009313463A683C
:100E6000034806F03FFE00BF1037BD4680BD00BFFF
:100E7000D400002080B586B002AF03460A46FB715D
:100E80001346BB71FB793B73BB797B73D023FB7338
:100E9000FB7B99B207F10C02642300930223034801
:100EA00006F022FD00BF1037BD4680BDD4000020F3
:100EB00080B584B000AF78600023FB7380216B2085
:100EC000FFF7D8FF642005F085F97B681B7803F0F5
:100ED0000703FB737B681B799B015BB203F0400344
:100EE0005AB297F90F3013435BB2FB73FB7B194681
:100EF0006B20FFF7BFFF642005F06CF90023FB7344
:100F00007B68DB7803F00703FB73FB7B19461A2031
:100F1000FFF7B0FF0023FB737B685B78DB00DBB27D
:100F200003F01803FB73FB7B19461B20FFF7A2FF9E
:100F30000023FB737B689B78DB00DBB203F01803B4
:100F4000FB73FB7B19461C20FFF794FF042000F085
:100F500057F87B689B78032B1AD801A252F823F02C
:100F6000710F0008790F0008810F0008890F000831
:100F70001A4B1B4A1A600CE0184B1A4A1A6008E018
:100F8000164B194A1A6004E0144B184A1A6000E024
:100F900000BF7B685B78032B1AD801A252F823F0BC
:100FA000B10F0008B90F0008C10F0008C90F0008F1
:100FB0000F4B104A1A600CE00D4B0F4A1A6008E004
:100FC0000B4B0E4A1A6004E0094B054A1A6000E018
:100FD00000BF00BF1037BD4680BD00BF2801002004
:100FE00000007A3D0000FA3D00007A3E0000FA3E23
:100FF0002C0100200000FA3B00007A3C0000FA3C83
:1010000080B582B000AF0346FB71FB791946192009
:10101000FFF730FF00BF0837BD4680BD80B588B000
:1010200000AF786007F11C030133012219463A2012
:10103000FFF7F8FE7B7F002B4FD007F11403062249
:1010400019463B20FFF7EEFE3B7D9BB21B029AB296
:101050007B7D9BB213449BB21AB27B681A80BB7D26
:101060009BB21B029AB2FB7D9BB213449BB21AB295
:101070007B685A803B7E9BB21B029AB27B7E9BB2FE
:1010800013449BB21AB27B689A8007F10C030622C4
:1010900019464320FFF7C6FE3B7B9BB21B029AB268
:1010A0007B7B9BB213449BB21AB20E4B1A80BB7B64
:1010B0009BB21B029AB2FB7B9BB213449BB21AB247
:1010C000084B5A803B7C9BB21B029AB27B7C9BB242
:1010D00013449BB21AB2034B9A8000BF2037BD461F
:1010E00080BD00BF3001002080B584B000AF7860C3
:1010F00007F108031846FFF791FFB7F9083007EE2C
:10110000903AF8EEE77A9FED1A7A37EE877A194B24
:10111000D3ED007A67EE277A7B68C3ED007AB7F9E2
:101120000A3007EE903AF8EEE77A9FED117A37EE43
:10113000877A104BD3ED007A67EE277A7B68C3ED90
:10114000017AB7F90C3007EE903AF8EEE77A9FEDA6
:10115000087A37EE877A074BD3ED007A67EE277A65
:101160007B68C3ED027A00BF1037BD4680BD00BF6B
:10117000000000002801002080B483B000AF786038
:101180000A4BB3F900207B681A80084BB3F90220A0
:101190007B685A80054BB3F904207B689A8000BFB6
:1011A0000C37BD465DF8047B704700BF300100205E
:1011B00080B584B000AF786007F108031846FFF7E8
:1011C000DBFFB7F9083007EE903AB8EEE77A144B38
:1011D000D3ED007A67EE277A7B68C3ED007AB7F922
:1011E0000A3007EE903AB8EEE77A0D4BD3ED007A6D
:1011F00067EE277A7B68C3ED017AB7F90C3007EE0A
:10120000903AB8EEE77A064BD3ED007A67EE277A8C
:101210007B68C3ED027A00BF1037BD4680BD00BFBA
:101220002C01002080B582B000AF7860084B1B789D
:10123000732B09D10748FEF7EBFF03469AB20A2346
:101240000449054809F0BBF900BF0837BD4680BD19
:101250004C030020240000201405002080B582B03B
:1012600000AF04F045FF02F07DFC03F07FF903F0CE
:101270005DF902F05DFD02F045FE02F0B9FE02F0FC
:101280009DFF03F063F802F0CDFD02F027FF03F0AD
:101290000FF803F0A9F802F0D1FC03F0F3F803F023
:1012A0001BF902F017FD0021A74807F01DFF0021E0
:1012B000A64807F019FF0021A54807F0ABFF002161
:1012C000A44807F0A7FFA44807F0B5FEA34807F01D
:1012D000B2FEA34807F0AFFEA24807F0ACFEA2485A
:1012E00007F0A9FEA04807F0A6FE00219E4807F0DF
:1012F000FBFE04219B4807F06AFF0421964807F093
:1013000066FF0421954807F062FF0421944807F026
:101310005EFF964B03225A6300220221944806F096
:1013200079F900224FF40041914806F073F9002248
:101330004FF480418E4806F06DF900224FF40051C1
:101340008B4806F067F901228A498B4809F0D0F9E9
:101350008A48FFF757FD0123BB7003237B700023EE
:101360003B700123FB7001237B7000233B713B46E4
:101370001846FFF79DFD824B1B78002B02F0B983C6
:10138000012220217F4806F045F903F099F903F086
:1013900001FD02467C4B1A607B4B1B68013B0B2B0B
:1013A00002F2B08301A252F823F000BFDD1300085F
:1013B000C5150008351800089B1A0008091D00080B
:1013C0003D1F0008AB26000869280008E52A000830
:1013D000992D0008F13100080B36000803F0F2FEE9
:1013E00040F6C41004F0F6FE03F06AF903F0D2FCF4
:1013F0000246654B1A60644B1B68012B42F08583E3
:10140000614B1B68184603F073FF604B01221A7092
:101410005F4B01221A705F4B00221A705E4B002254
:101420001A7004F073F85D4B1B68002B42D15C4BC3
:101430001A685C4B1B689A421AD35B4B1A68594B6B
:101440001B689A4214D3594B1A68564B1B689A4230
:101450000ED3574B1A68534B1B689A4208D3554B0F
:101460001A68504B1B689A4202D304F033F969E0C2
:10147000514B1B7883F00103DBB2002B0DD14F4B96
:101480001B7883F00103DBB2002B06D14C4B1B7899
:1014900083F00103DBB2002B08D003F075FE4FF49C
:1014A000FA5004F097FE03F08DFE4BE003F08AFE45
:1014B00002F02BBB394B1B68012B42F02683384BC3
:1014C0001A68384B1B689A421AD8374B1A68354B42
:1014D0001B689A4214D8354B1A68324B1B689A42E3
:1014E0000ED8334B1A682F4B1B689A4208D8314BE1
:1014F0001A682C4B1B689A4202D804F0EBF821E0E2
:101500002D4B1B7883F00103DBB2002B0DD12B4B4D
:101510001B7883F00103DBB2002B06D1284B1B782C
:1015200083F00103DBB2002B08D003F02DFE4FF453
:10153000FA5004F04FFE03F045FE03E003F042FED4
:1015400002F0E3BA02F0E1BAB0020020D4040020B5
:10155000F40600206403002078060020AC0300207D
:1015600044020020FC010020B80500200048014092
:10157000000402404C03002014050020F00200206B
:101580005401002000000240C40400205501002046
:10159000A40200209402002000040020400000204B
:1015A000F00600206C0100209C070020C0040020F1
:1015B000EC060020DC060020560100205701002028
:1015C000580100208D4B1B68184603F091FE8C4B90
:1015D00001221A708B4B00221A7003F097FF8A4B7E
:1015E0001B68002B40F08180884B1A68884B1B6871
:1015F0009A421AD3874B1A68854B1B689A4214D3B8
:10160000854B1A68824B1B689A420ED3834B1A682B
:101610007F4B1B689A4208D3814B1A687C4B1B682E
:101620009A4202D304F056F8E5E07E4B1B88013362
:101630009AB27C4B1A807B4B1B88642B46D1794B2A
:1016400000221A8003F0BEFDFA2004F0C3FD03F06F
:10165000F9FF754B93ED007A744BD3ED007AB4EE3D
:10166000E77AF1EE10FA13DD06E003F0EBFF0A2053
:1016700004F0B0FD03F01EFE6B4B93ED007A6B4B54
:10168000D3ED007AB4EEE77AF1EE10FAEDDC1DE06E
:10169000654B93ED007A654BD3ED007AB4EEE77AB3
:1016A000F1EE10FA12D506E003F0CCFF0A2004F0A8
:1016B00091FD03F0E1FD5C4B93ED007A5B4BD3EDC4
:1016C000007AB4EEE77AF1EE10FAEDD4584B1B78BD
:1016D00083F00103DBB2002B03D003F055FD02F0D1
:1016E00017BA03F08DFD02F013BA474B1B68012BAC
:1016F00042F00E82454B1A68454B1B689A421AD835
:10170000444B1A68424B1B689A4214D8424B1A68E1
:101710003F4B1B689A420ED8404B1A683C4B1B68E3
:101720009A4208D83E4B1A68394B1B689A4202D835
:1017300003F0D0FF5FE03B4B1B8801339AB2394B7B
:101740001A80384B1B88642B46D1364B00221A80F6
:1017500003F038FDFA2004F03DFD03F073FF324B37
:1017600093ED007A314BD3ED007AB4EEE77AF1EEE7
:1017700010FA13DD06E003F065FF0A2004F02AFDED
:1017800003F098FD284B93ED007A284BD3ED007AB7
:10179000B4EEE77AF1EE10FAEDDC1DE0224B93EDAA
:1017A000007A224BD3ED007AB4EEE77AF1EE10FA2C
:1017B00012D506E003F046FF0A2004F00BFD03F00B
:1017C0005BFD194B93ED007A184BD3ED007AB4EE24
:1017D000E77AF1EE10FAEDD4154B1B7883F0010394
:1017E000DBB2002B03D003F0CFFC02F091B903F081
:1017F00007FD02F08DB902F08BB900BFC4040020D0
:10180000A40200209402002040000020F0060020E6
:101810006C0100209C070020C0040020EC06002082
:10182000DC06002070010020CC06002038000020DB
:101830000004002003F0C6FC40F6C41004F0CAFC0B
:1018400002F03EFF03F0A6FA0246AA4B1A60A94B2B
:101850001B68032B42F05F81A64B1B68184603F000
:1018600047FDA54B01221A70A44B01221A70A44B0C
:1018700001221A70A34B00221A7003F047FEA24BFC
:101880001B68002B40F08180A04B1A68A04B1B689E
:101890009A421AD39F4B1A689D4B1B689A4214D3E5
:1018A0009D4B1A689A4B1B689A420ED39B4B1A6841
:1018B000974B1B689A4208D3994B1A68944B1B6844
:1018C0009A4202D303F006FFE5E0964B1B78002B0B
:1018D00038D0954B1B7883F00103DBB2002B31D05D
:1018E000924B1B7883F00103DBB2002B2AD003F06C
:1018F00087FC4FF47A6004F06DFC03F0BDFC4FF4FC
:10190000FA5004F067FC03F07BFC4FF4FA6004F03B
:1019100061FC03F097FE03E003F094FE03F0CAFCC1
:10192000834B93ED007A834BD3ED007AB4EEE77AE4
:10193000F1EE10FAF0DC03F063FC4FF4967004F063
:1019400049FCA8E0774B1B78002B0ED0764B1B7818
:10195000002B0AD0754B1B78002B06D003F050FCEF
:101960004FF47A6004F036FC95E06E4B1B7883F000
:101970000103DBB2002B02F0CE8003F041FC4FF4F8
:101980007A6004F027FC02F0C6B85F4B1B68012B9D
:1019900042F0C1805D4B1A685D4B1B689A421AD8B1
:1019A0005C4B1A685A4B1B689A4214D85A4B1A68F7
:1019B000574B1B689A420ED8584B1A68544B1B68F9
:1019C0009A4208D8564B1A68514B1B689A4202D863
:1019D00003F080FE5FE0534B1B78002B38D0524B56
:1019E0001B7883F00103DBB2002B31D04F4B1B7807
:1019F00083F00103DBB2002B2AD003F001FC4FF48B
:101A00007A6004F0E7FB03F037FC4FF4FA5004F07F
:101A1000E1FB03F0F5FB4FF4FA6004F0DBFB03F0AD
:101A200011FE03E003F00EFE03F044FC404B93ED87
:101A3000007A404BD3ED007AB4EEE77AF1EE10FA7B
:101A4000F0DC03F0DDFB4FF4967004F0C3FB22E002
:101A5000344B1B78002B0ED0334B1B78002B0AD055
:101A6000324B1B78002B06D003F0CAFB4FF47A6090
:101A700004F0B0FB0FE02B4B1B7883F00103DBB2CB
:101A8000002B02F0488003F0BBFB4FF47A6004F0B7
:101A9000A1FB02F040B802F03EB8164B1B68184696
:101AA00003F026FC03F032FD174B1B68002B40F0BF
:101AB000A380164B1A68164B1B689A423CD3154BF1
:101AC0001A68134B1B689A4236D3134B1A68104B93
:101AD0001B689A4230D3114B1A680D4B1B689A420F
:101AE0002AD30F4B1A680A4B1B689A4224D303F07F
:101AF000F1FD07E1C404002056010020A4020020EB
:101B0000000400209402002040000020F006002085
:101B10006C0100209C070020C0040020EC0600207F
:101B2000DC0600205501002057010020580100204C
:101B3000FC03002034000020B94B1B8801339AB20B
:101B4000B74B1A80B64B1B88642B46D1B44B00228E
:101B50001A8003F037FBFA2004F03CFB03F072FD1F
:101B6000B04B93ED007AB04BD3ED007AB4EEE77A48
:101B7000F1EE10FA13DD06E003F064FD0A2004F034
:101B800029FB03F097FBA74B93ED007AA64BD3ED0F
:101B9000007AB4EEE77AF1EE10FAEDDC1DE0A14B2D
:101BA00093ED007AA04BD3ED007AB4EEE77AF1EE34
:101BB00010FA12D506E003F045FD0A2004F00AFBF6
:101BC00003F05AFB974B93ED007A974BD3ED007AD5
:101BD000B4EEE77AF1EE10FAEDD4944B1B7883F073
:101BE0000103DBB2002B03D003F0CEFA01F096BF65
:101BF00003F006FB01F092BF8D4B1B68012B41F0F7
:101C00008D878C4B1A688C4B1B689A421AD88B4B69
:101C10001A68894B1B689A4214D8894B1A68864BFC
:101C20001B689A420ED8874B1A68834B1B689A42EE
:101C300008D8854B1A68804B1B689A4202D803F07B
:101C400049FD5FE0764B1B8801339AB2744B1A80D2
:101C5000734B1B88642B46D1714B00221A8003F012
:101C6000B1FAFA2004F0B6FA03F0ECFC6D4B93EDF8
:101C7000007A6D4BD3ED007AB4EEE77AF1EE10FA0C
:101C800013DD06E003F0DEFC0A2004F0A3FA03F003
:101C900011FB644B93ED007A634BD3ED007AB4EE05
:101CA000E77AF1EE10FAEDDC1DE05E4B93ED007A81
:101CB0005D4BD3ED007AB4EEE77AF1EE10FA12D56F
:101CC00006E003F0BFFC0A2004F084FA03F0D4FA23
:101CD000544B93ED007A544BD3ED007AB4EEE77A8F
:101CE000F1EE10FAEDD4514B1B7883F00103DBB217
:101CF000002B03D003F048FA01F010BF03F080FA84
:101D000001F00CBF01F00ABF03F05CFA40F6C4100A
:101D100004F060FA02F0D4FC03F03CF802464B4BAE
:101D20001A604A4B1B68052B41F0FB86474B1B682A
:101D3000184603F0DDFA3D4B00221A7003F0E6FB73
:101D40003B4B1B68002B40F083803A4B1A683A4BA0
:101D50001B689A421AD3394B1A68374B1B689A4250
:101D600014D3374B1A68344B1B689A420ED3354B49
:101D70001A68314B1B689A4208D3334B1A682E4BB2
:101D80001B689A4202D303F0A5FCD5E003F05AFC8D
:101D9000244B93ED007A244BD3ED007AB4EEE77A2E
:101DA000F1EE10FA13DD06E003F04CFC0A2004F01B
:101DB00011FA03F07FFA1B4B93ED007A1A4BD3ED27
:101DC000007AB4EEE77AF1EE10FAEDDC1DE0154B87
:101DD00093ED007A144BD3ED007AB4EEE77AF1EE8E
:101DE00010FA12D506E003F02DFC0A2004F0F2F9F7
:101DF00003F042FA0B4B93ED007A0B4BD3ED007AD4
:101E0000B4EEE77AF1EE10FAEDD403F0BDF942F644
:101E1000F82004F0DFF903F0D5F901F082BE00BF2D
:101E200072010020CC0600203800002000040020B1
:101E300040000020F00600206C0100209C070020DC
:101E4000C0040020EC060020DC060020C4040020B2
:101E5000B54B1B68012B41F06486B44B1A68B44B38
:101E60001B689A421AD8B34B1A68B14B1B689A4246
:101E700014D8B14B1A68AE4B1B689A420ED8AF4BC0
:101E80001A68AB4B1B689A4208D8AD4B1A68A84B2E
:101E90001B689A4202D803F01DFC4DE003F0D2FB10
:101EA000A84B93ED007AA84BD3ED007AB4EEE77A15
:101EB000F1EE10FA13DD06E003F0C4FB0A2004F093
:101EC00089F903F0F7F99F4B93ED007A9E4BD3ED20
:101ED000007AB4EEE77AF1EE10FAEDDC1DE0994BF2
:101EE00093ED007A984BD3ED007AB4EEE77AF1EEF9
:101EF00010FA12D506E003F0A5FB0A2004F06AF9F7
:101F000003F0BAF98F4B93ED007A8F4BD3ED007A43
:101F1000B4EEE77AF1EE10FAEDD403F053F9C820ED
:101F200004F058F903F030F94FF4FA5004F052F984
:101F300003F048F901F0F5BD01F0F3BD03F042F9FB
:101F400040F6C41004F046F902F0BAFB02F022FF9A
:101F500002467E4B1A607D4B1B68062B41F0E485E0
:101F600003F030F94FF42F7004F034F9774B1B680D
:101F7000184603F0BDF9764B01221A7003F0C6FA39
:101F8000694B1B68002B40F0C581684B1A68684B91
:101F90001B689A421AD3674B1A68654B1B689A42B2
:101FA00014D3654B1A68624B1B689A420ED3634B7D
:101FB0001A685F4B1B689A4208D3614B1A685C4BE6
:101FC0001B689A4202D303F085FB6CE303F03AFBF3
:101FD0005C4B93ED007A5C4BD3ED007AB4EEE77A7C
:101FE000F1EE10FA13DD06E003F02CFB0A2004F0FA
:101FF000F1F803F05FF9534B93ED007A524BD3EDB8
:10200000007AB4EEE77AF1EE10FAEDDC1DE04D4B0C
:1020100093ED007A4C4BD3ED007AB4EEE77AF1EE13
:1020200010FA12D506E003F00DFB0A2004F0D2F8F6
:1020300003F022F9434B93ED007A434BD3ED007A42
:10204000B4EEE77AF1EE10FAEDD403F0BBF84FF4FA
:10205000967004F0BFF83F4B1B7883F00103DBB2AE
:10206000002B7FD03C4B1B78002B7BD03B4B1B685D
:1020700007EE903AB8EE677A394BD3ED007AB4EEBA
:10208000E77AF1EE10FA24DB03F0BAF840F6B83044
:1020900004F0A0F803F0D2F841F2707004F09AF85E
:1020A00003F0AEF84FF4FA7004F094F803F0CAFAB3
:1020B00003E003F0C7FA03F0FDF8224B93ED007A3A
:1020C000214BD3ED007AB4EEE77AF1EE10FAF0DCB2
:1020D000E9E203F095F84FF47A6004F07BF803F03E
:1020E000CBF84FF4FA5004F075F803F06BF84FF4A6
:1020F000FA7004F06FF803F083F84FF42F6004F0E7
:1021000069F803F09FFA03E003F09CFA03F0D2F8B9
:102110000C4B93ED007A0C4BD3ED007AB4EEE77ADA
:10212000F1EE10FAF0DCBEE240000020F0060020E4
:102130006C0100209C070020C0040020EC06002059
:10214000DC060020CC06002038000020C40400205B
:102150000004002094020020A40200203C00002083
:10216000F0030020C04B1B78002B5ED0BF4B1B78C8
:1021700083F00103DBB2002B57D0BD4B1B6807EE89
:10218000903AB8EE677ABB4BD3ED007AB4EEE77ABB
:10219000F1EE10FA24DB03F033F840F6B83004F027
:1021A00019F803F087F841F2707004F013F803F0A7
:1021B00027F84FF4FA7004F00DF803F043FA03E047
:1021C00003F040FA03F058F8AB4B93ED007AAB4BB9
:1021D000D3ED007AB4EEE77AF1EE10FAF0D462E2D1
:1021E00003F00EF84FF47A6003F0F4FF03F062F8A6
:1021F0004FF4FA5003F0EEFF03F002F84FF42F60B3
:1022000003F0E8FF03F01EFA03E003F01BFA03F00B
:1022100033F8994B93ED007A984BD3ED007AB4EEF6
:10222000E77AF1EE10FAF0D43DE28F4B1B7883F0A1
:102230000103DBB2002B01F077848C4B1B7883F019
:102240000103DBB2002B01F06F8402F0D9FF4FF4E1
:102250007A6003F0BFFF864B1B6807EE903AB8EE3A
:10226000677A874BD3ED007AB4EEE77AF1EE10FA95
:1022700024DB02F0C5FF40F2DC5003F0ABFF02F0BC
:10228000FBFF41F2707003F0A5FF02F0B9FF4FF4BD
:10229000FA7003F09FFF03F0D5F903E003F0D2F9E1
:1022A00003F008F8744B93ED007A744BD3ED007A89
:1022B000B4EEE77AF1EE10FAF0DC0BE002F0DCFFAE
:1022C0004FF4FA5003F086FF02F09AFF41F65830BF
:1022D00003F080FF02F076FF4FF4FA7003F07AFF0C
:1022E00003F0B0F903E003F0ADF902F0E3FF624B55
:1022F00093ED007A614BD3ED007AB4EEE77AF1EE1C
:1023000010FAF0DC02F07CFF4FF42F6003F062FF64
:1023100001F00ABC5B4B1B68012B41F005845A4B52
:102320001A685A4B1B689A421AD8594B1A68574B6D
:102330001B689A4214D8574B1A68544B1B689A4230
:102340000ED8554B1A68514B1B689A4208D8534B0C
:102350001A684E4B1B689A4202D803F0BBF9A2E1FF
:1023600003F070F9444B93ED007A444BD3ED007ABF
:10237000B4EEE77AF1EE10FA13DD06E003F062F94D
:102380000A2003F027FF02F095FF3B4B93ED007A04
:102390003A4BD3ED007AB4EEE77AF1EE10FAEDDCC9
:1023A0001DE0354B93ED007A344BD3ED007AB4EE5B
:1023B000E77AF1EE10FA12D506E003F043F90A20AD
:1023C00003F008FF02F058FF2B4B93ED007A2B4BE4
:1023D000D3ED007AB4EEE77AF1EE10FAEDD402F024
:1023E000F1FE4FF4967003F0F5FE1F4B1B7883F05F
:1023F0000103DBB2002B7ED01C4B1B78002B7AD064
:102400001B4B1B6807EE903AB8EE677A1C4BD3ED76
:10241000007AB4EEE77AF1EE10FA41DB02F0F0FE5A
:1024200040F6B83003F0D6FE02F008FF41F27070BB
:1024300003F0D0FE02F0E4FE4FF4FA7003F0CAFE9F
:1024400003F000F903E003F0FDF802F033FF0A4B5C
:1024500093ED007A094BD3ED007AB4EEE77AF1EE12
:1024600010FAF0DC1FE100BF94020020A40200205B
:102470003C00002048030020CC060020380000204B
:10248000F003002040000020F00600206C01002036
:102490009C070020C0040020EC060020DC06002081
:1024A00002F0AEFE4FF47A6003F094FE02F0E4FE18
:1024B00041F2707003F08EFE02F084FE4FF4FA7069
:1024C00003F088FE02F09CFE4FF42F6003F082FEC2
:1024D00003F0B8F803E003F0B5F802F0EBFEBC4BF4
:1024E00093ED007ABB4BD3ED007AB4EEE77AF1EED0
:1024F00010FAF0DCD7E0B84B1B78002B5ED0B74B5E
:102500001B7883F00103DBB2002B57D0B44B1B6860
:1025100007EE903AB8EE677AB24BD3ED007AB4EE9C
:10252000E77AF1EE10FA24DB02F06AFE40F6B830EA
:1025300003F050FE02F0BEFE41F2707003F04AFE5E
:1025400002F05EFE4FF4FA7003F044FE03F07AF8F6
:1025500003E003F077F802F08FFE9D4B93ED007AD5
:102560009C4BD3ED007AB4EEE77AF1EE10FAF0D49A
:1025700099E002F045FE4FF47A6003F02BFE02F082
:1025800099FE4FF4FA5003F025FE02F039FE4FF4A5
:102590002F6003F01FFE03F055F803E003F052F83C
:1025A00002F06AFE8A4B93ED007A8A4BD3ED007AF3
:1025B000B4EEE77AF1EE10FAF0D474E0864B1B78B3
:1025C00083F00103DBB2002B01F0AE82834B1B785A
:1025D00083F00103DBB2002B01F0A68202F010FEB3
:1025E0004FF47A6003F0F6FD7D4B1B6807EE903ADE
:1025F000B8EE677A7C4BD3ED007AB4EEE77AF1EE71
:1026000010FA24DB02F0FCFD40F2DC5003F0E2FDA6
:1026100002F032FE41F2707003F0DCFD02F0F0FDDA
:102620004FF4FA7003F0D6FD03F00CF803E003F06A
:1026300009F802F03FFE664B93ED007A654BD3ED4F
:10264000007AB4EEE77AF1EE10FAF0DC0BE002F07B
:1026500013FE4FF4FA5003F0BDFD02F0D1FD41F638
:10266000583003F0B7FD02F0ADFD4FF4FA7003F0FF
:10267000B1FD02F0E7FF03E002F0E4FF02F01AFE12
:10268000534B93ED007A534BD3ED007AB4EEE77AD7
:10269000F1EE10FAF0DC02F0B3FD4FF42F6003F01E
:1026A00099FD01F041BA01F03FBA02F08BFD40F60E
:1026B000C41003F08FFD02F003F802F06BFB02463A
:1026C0004A4B1A60494B1B68072B41F03082474B3D
:1026D0001B68184602F00CFE454B01221A703E4B57
:1026E00001221A703D4B00221A70424B00221A70D0
:1026F00002F00CFF404B1B68002B42D13F4B1A6885
:102700003F4B1B689A421AD33E4B1A683C4B1B68DE
:102710009A4214D33C4B1A68394B1B689A420ED329
:102720003A4B1A68364B1B689A4208D3384B1A68E2
:10273000334B1B689A4202D302F0CCFF92E0354B38
:102740001B7883F00103DBB2002B0DD1324B1B78D9
:1027500083F00103DBB2002B06D1304B1B7883F0F2
:102760000103DBB2002B08D002F00EFD4FF4FA504B
:1027700003F030FD02F026FD74E002F023FD01F0CD
:10278000D6B91D4B1B68012B41F0D1811B4B1A6838
:102790001B4B1B689A4243D81A4B1A68184B1B688C
:1027A0009A423DD8184B1A68154B1B689A4237D885
:1027B000164B1A68124B1B689A4231D8144B1A6890
:1027C0000F4B1B689A422BD802F084FF4AE000BFEF
:1027D000CC0600203800002094020020A402002033
:1027E0003C00002048030020F0030020C404002027
:1027F000570100200004002040000020F0060020C7
:102800006C0100209C070020C0040020EC06002082
:10281000DC06002056010020580100205501002050
:102820009F4B1B7883F00103DBB2002B0DD19D4B36
:102830001B7883F00103DBB2002B06D19A4B1B7887
:1028400083F00103DBB2002B08D002F09DFC4FF4B3
:10285000FA5003F0BFFC02F0B5FC03E002F0B2FC5A
:1028600001F065B901F063B9904B1B68184602F09E
:102870003FFD8F4B00221A708E4B01221A7002F01E
:1028800045FE8D4B1B68002B40F081808B4B1A68F6
:102890008B4B1B689A421AD38A4B1A68884B1B6869
:1028A0009A4214D3884B1A68854B1B689A420ED300
:1028B000864B1A68824B1B689A4208D3844B1A686D
:1028C0007F4B1B689A4202D302F004FFE5E0814B84
:1028D0001B8801339AB27F4B1A807E4B1B88642B76
:1028E00046D17C4B00221A8002F06CFCFA2003F0E7
:1028F00071FC02F0A7FE784B93ED007A774BD3ED95
:10290000007AB4EEE77AF1EE10FA13DD06E002F099
:1029100099FE0A2003F05EFC02F0CCFC6E4B93EDB6
:10292000007A6E4BD3ED007AB4EEE77AF1EE10FA4E
:10293000EDDC1DE0684B93ED007A684BD3ED007A37
:10294000B4EEE77AF1EE10FA12D506E002F07AFE64
:102950000A2003F03FFC02F08FFC5F4B93ED007AFE
:102960005E4BD3ED007AB4EEE77AF1EE10FAEDD4D7
:102970005B4B1B7883F00103DBB2002B03D002F02A
:1029800003FC01F0D7B802F03BFC01F0D3B84A4B8E
:102990001B68012B41F0CE80484B1A68484B1B68DE
:1029A0009A421AD8474B1A68454B1B689A4214D86A
:1029B000454B1A68424B1B689A420ED8434B1A6823
:1029C0003F4B1B689A4208D8414B1A683C4B1B6826
:1029D0009A4202D802F07EFE5FE03E4B1B88013334
:1029E0009AB23C4B1A803B4B1B88642B46D1394B27
:1029F00000221A8002F0E6FBFA2003F0EBFB02F063
:102A000021FE354B93ED007A344BD3ED007AB4EED2
:102A1000E77AF1EE10FA13DD06E002F013FE0A2069
:102A200003F0D8FB02F046FC2B4B93ED007A2B4BC6
:102A3000D3ED007AB4EEE77AF1EE10FAEDDC1DE0AA
:102A4000254B93ED007A254BD3ED007AB4EEE77A6F
:102A5000F1EE10FA12D506E002F0F4FD0A2003F0C0
:102A6000B9FB02F009FC1C4B93ED007A1B4BD3ED34
:102A7000007AB4EEE77AF1EE10FAEDD4184B1B7839
:102A800083F00103DBB2002B03D002F07DFB01F0E9
:102A900051B802F0B5FB01F04DB801F04BB800BFE2
:102AA000560100205801002055010020C4040020D8
:102AB000A40200209402002040000020F006002024
:102AC0006C0100209C070020C0040020EC060020C0
:102AD000DC06002074010020CC0600203800002015
:102AE0000004002002F06EFB40F6C41003F072FBFD
:102AF00001F0E6FD02F04EF90246964B1A60954B46
:102B00001B68092B41F01980924B1B68184602F094
:102B1000EFFB914B01221A70904B01221A70904BDF
:102B200001221A708F4B00221A7002F0EFFC8E4BBC
:102B30001B68002B40F083808C4B1A688C4B1B6801
:102B40009A421AD38B4B1A68894B1B689A4214D34A
:102B5000894B1A68864B1B689A420ED3874B1A68BA
:102B6000834B1B689A4208D3854B1A68804B1B68BD
:102B70009A4202D302F0AEFDE9E002F0AFFC814BD5
:102B80001B78002B38D0804B1B7883F00103DBB21D
:102B9000002B31D07D4B1B7883F00103DBB2002B7F
:102BA0002AD002F02DFB4FF47A6003F013FB02F001
:102BB00081FB4FF4FA5003F00DFB02F021FB4FF4C0
:102BC000FA6003F007FB02F03DFD03E002F03AFD7E
:102BD00002F052FB6E4B93ED007A6E4BD3ED007A10
:102BE000B4EEE77AF1EE10FAF0DC02F009FB4FF4F4
:102BF000967003F0EFFAAAE0624B1B78002B0ED020
:102C0000614B1B78002B0AD0534B1B78002B06D04E
:102C100002F0F6FA4FF47A6003F0DCFA97E0594BD1
:102C20001B7883F00103DBB2002B00F0868702F0F3
:102C3000E7FA4FF47A6003F0CDFA00F07EBF4A4B1A
:102C40001B68012B40F07987484B1A68484B1B687A
:102C50009A421AD8474B1A68454B1B689A4214D8B7
:102C6000454B1A68424B1B689A420ED8434B1A6870
:102C70003F4B1B689A4208D8414B1A683C4B1B6873
:102C80009A4202D802F026FD61E002F027FC3D4B9B
:102C90001B78002B38D03C4B1B7883F00103DBB250
:102CA000002B31D0394B1B7883F00103DBB2002BB2
:102CB0002AD002F0A5FA4FF47A6003F08BFA02F002
:102CC000F9FA4FF4FA5003F085FA02F099FA4FF44A
:102CD000FA6003F07FFA02F0B5FC03E002F0B2FC08
:102CE00002F0CAFA2A4B93ED007A2A4BD3ED007A10
:102CF000B4EEE77AF1EE10FAF0DC02F081FA4FF46C
:102D0000967003F067FA22E01E4B1B78002B0ED062
:102D10001D4B1B78002B0AD00F4B1B78002B06D0C5
:102D200002F06EFA4FF47A6003F054FA0FE0154B9C
:102D30001B7883F00103DBB2002B00F0FE8602F06B
:102D40005FFA4FF47A6003F045FA00F0F6BE00F047
:102D5000F4BE00BFC404002058010020000400207D
:102D600094020020A402002040000020F006002071
:102D70006C0100209C070020C0040020EC0600200D
:102D8000DC060020570100205501002056010020DC
:102D9000FC0300203400002002F014FA40F6C410B6
:102DA00003F018FA01F08CFC01F0F4FF0246AF4B7F
:102DB0001A60AE4B1B680A2B40F0C286AB4B1B68F7
:102DC000184602F095FAAA4B01221A70A94B01226B
:102DD0001A70A94B01221A70A84B00221A7002F037
:102DE00095FBA74B1B68002B40F0EC80A54B1A68A5
:102DF000A54B1B689A421AD3A44B1A68A24B1B68B6
:102E00009A4214D3A24B1A689F4B1B689A420ED366
:102E1000A04B1A689C4B1B689A4208D39E4B1A68B9
:102E2000994B1B689A4202D302F054FCDEE102F097
:102E300009FC9A4B93ED007A994BD3ED007AB4EEEE
:102E4000E77AF1EE10FA13DD06E002F0FBFB0A2050
:102E500003F0C0F902F02EFA904B93ED007A904BFC
:102E6000D3ED007AB4EEE77AF1EE10FAEDDC1DE076
:102E70008A4B93ED007A8A4BD3ED007AB4EEE77A71
:102E8000F1EE10FA12D506E002F0DCFB0A2003F0A6
:102E9000A1F902F0F1F9814B93ED007A804BD3ED6B
:102EA000007AB4EEE77AF1EE10FAEDD402F08AF986
:102EB000002003F08FF97B4B1B78002B5FD07A4BFF
:102EC0001B7883F00103DBB2002B58D0774B1B78C3
:102ED00083F00103DBB2002B51D002F091F94FF4E3
:102EE0007A7003F077F902F0C7F94FF47A7003F0C3
:102EF00071F902F067F9322003F06CF902F080F901
:102F00004FF4FA6003F066F902F0B6F94FF47A7004
:102F100003F060F902F056F9322003F05BF902F099
:102F20006FF94FF4FA6003F055F902F04BF93220D3
:102F300003F050F902F0A0F941F6583003F04AF9D5
:102F400002F05EF94FF4FA6003F044F902F07AFB04
:102F500003E002F077FB02F0ADF9504B93ED007AFD
:102F60004F4BD3ED007AB4EEE77AF1EE10FAF0DCD5
:102F700002F046F94FF4967003F02CF936E1494B14
:102F80001B78002B0ED0484B1B78002B0AD0474BE8
:102F90001B78002B06D002F033F94FF47A6003F06F
:102FA00019F923E13F4B1B7883F00103DBB2002BBF
:102FB00000F0C68502F024F94FF47A6003F00AF9B4
:102FC00000F0BEBD2E4B1B68012B40F0B9852D4B88
:102FD0001A682D4B1B689A421AD82C4B1A682A4B38
:102FE0001B689A4214D82A4B1A68274B1B689A42CE
:102FF0000ED8284B1A68244B1B689A4208D8264BD7
:103000001A68214B1B689A4202D802F063FBEDE07C
:1030100002F018FB214B93ED007A214BD3ED007A9F
:10302000B4EEE77AF1EE10FA13DD06E002F00AFBE7
:103030000A2003F0CFF802F03DF9184B93ED007A27
:10304000174BD3ED007AB4EEE77AF1EE10FAEDDC2F
:1030500040E0124B93ED007A114BD3ED007AB4EEC1
:10306000E77AF1EE10FA35D529E000BFC40400205C
:1030700056010020A4020020000400209402002039
:1030800040000020F00600206C0100209C0700207A
:10309000C0040020EC060020DC060020CC06002046
:1030A0003800002055010020570100205801002061
:1030B00002F0C8FA0A2003F08DF802F0DDF8C34BE5
:1030C00093ED007AC24BD3ED007AB4EEE77AF1EEDD
:1030D00010FAEDD402F076F8002003F07BF8BD4B37
:1030E0001B78002B5FD0BC4B1B7883F00103DBB255
:1030F000002B58D0B94B1B7883F00103DBB2002BB7
:1031000051D002F07DF84FF47A7003F063F802F0CA
:10311000B3F84FF47A7003F05DF802F053F8322000
:1031200003F058F802F06CF84FF4FA6003F052F82C
:1031300002F0A2F84FF47A7003F04CF802F042F873
:10314000322003F047F802F05BF84FF4FA6003F026
:1031500041F802F037F8322003F03CF802F08CF826
:1031600041F6583003F036F802F04AF84FF4FA60AE
:1031700003F030F802F066FA03E002F063FA02F0BE
:1031800099F8924B93ED007A914BD3ED007AB4EE1F
:10319000E77AF1EE10FAF0DC02F032F84FF49670B4
:1031A00003F018F822E08B4B1B78002B0ED08A4BD3
:1031B0001B78002B0AD0894B1B78002B06D002F01D
:1031C0001FF84FF47A6003F005F80FE0814B1B788D
:1031D00083F00103DBB2002B00F0B28402F010F8A0
:1031E0004FF47A6002F0F6FF00F0AABC00F0A8BC31
:1031F00001F0E8FF40F6C41002F0ECFF01F060FAC5
:1032000001F0C8FD0246764B1A60754B1B680B2B0C
:1032100040F09984724B1B68184602F069F86F4BB6
:1032200001221A706F4B00221A706F4B01221A7024
:103230006E4B01221A7002F069F96D4B1B68002B6E
:1032400040F008816B4B1A686B4B1B689A421AD38B
:103250006A4B1A68684B1B689A4214D3684B1A6809
:10326000654B1B689A420ED3664B1A68624B1B680B
:103270009A4208D3644B1A685F4B1B689A4202D388
:1032800002F028FAC0E102F0DDF9504B93ED007A2C
:103290004F4BD3ED007AB4EEE77AF1EE10FA13DD7E
:1032A00006E002F0CFF90A2002F094FF02F002F8E3
:1032B000464B93ED007A464BD3ED007AB4EEE77AB5
:1032C000F1EE10FAEDDC1DE0404B93ED007A404B3F
:1032D000D3ED007AB4EEE77AF1EE10FA12D506E0FB
:1032E00002F0B0F90A2002F075FF01F0C5FF374B7C
:1032F00093ED007A364BD3ED007AB4EEE77AF1EE37
:1033000010FAEDD4334B1B7883F00103DBB2002BB2
:103310007ED0314B1B78002B7AD03C4B1B7883F04E
:103320000103DBB2002B73D001F06AFF4FF47A7017
:1033300002F050FF01F0BEFF4FF47A7002F04AFF36
:1033400001F040FF322002F045FF01F059FF4FF439
:10335000FA6002F03FFF01F0ADFF4FF47A7002F027
:1033600039FF01F02FFF322002F034FF01F048FF57
:103370004FF4FA6002F02EFF01F024FF322002F039
:1033800029FF01F097FF41F6583002F023FF01F0CA
:1033900037FF41F2941002F01DFF02F053F903E0F1
:1033A00002F050F901F068FF084B93ED007A084BEA
:1033B000D3ED007AB4EEE77AF1EE10FAF0D401F032
:1033C0001FFF4FF4967002F005FF1DE1CC060020B0
:1033D000380000205501002057010020580100202E
:1033E000C4040020A4020020000400209402002055
:1033F00040000020F00600206C0100209C07002007
:10340000C0040020EC060020DC060020560100204D
:10341000B44B1B78002B0ED0B34B1B78002B0AD07B
:10342000B24B1B78002B06D001F0EAFE4FF47A6015
:1034300002F0D0FEE8E0AC4B1B7883F00103DBB276
:10344000002B00F0808301F0DBFE4FF47A6002F085
:10345000C1FE78E3A64B1B68012B40F07483A54B9B
:103460001A68A54B1B689A421AD8A44B1A68A24B3B
:103470001B689A4214D8A24B1A689F4B1B689A4249
:103480000ED8A04B1A689C4B1B689A4208D89E4BDA
:103490001A68994B1B689A4202D802F01BF9B3E0F4
:1034A00002F0D0F8994B93ED007A994BD3ED007A66
:1034B000B4EEE77AF1EE10FA13DD06E002F0C2F89E
:1034C0000A2002F087FE01F0F5FE904B93ED007AA2
:1034D0008F4BD3ED007AB4EEE77AF1EE10FAEDDC23
:1034E0001DE08A4B93ED007A894BD3ED007AB4EE60
:1034F000E77AF1EE10FA12D506E002F0A3F80A20FE
:1035000002F068FE01F0B8FE804B93ED007A804B2C
:10351000D3ED007AB4EEE77AF1EE10FAEDD4714B08
:103520001B7883F00103DBB2002B4BD06E4B1B7872
:10353000002B47D0774B1B7883F00103DBB2002BC5
:1035400040D001F05DFE4FF47A7002F043FE01F0CE
:10355000B1FE4FF47A7002F03DFE01F033FE3220EE
:1035600002F038FE01F04CFE4FF4FA6002F032FE39
:1035700001F0A0FE4FF47A7002F02CFE01F022FE62
:10358000322002F027FE01F095FE41F6583002F09D
:1035900021FE02F057F803E002F054F801F06CFE4F
:1035A0005A4B93ED007A5A4BD3ED007AB4EEE77A9A
:1035B000F1EE10FAF0D401F023FE4FF4967002F011
:1035C00009FE21E0474B1B78002B0ED0464B1B78A1
:1035D000002B0AD0454B1B78002B06D001F010FEC3
:1035E0004FF47A6002F0F6FD0EE03F4B1B7883F05B
:1035F0000103DBB2002B00F0A68201F001FE4FF4C4
:103600007A6002F0E7FD9EE29DE201F0DBFD40F60C
:10361000C41002F0DFFD01F053F801F0BBFB0246DD
:103620003D4B1A603C4B1B680C2B40F06B823A4BB5
:103630001B68184601F05CFE2C4B01221A70374BB8
:1036400000221A70364B01221A70364B01221A7072
:1036500001F05CFF264B1B68002B40F02481254BBA
:103660001A68254B1B689A421AD3244B1A68224BBE
:103670001B689A4214D3224B1A681F4B1B689A424C
:103680000ED3204B1A681C4B1B689A4208D31E4B62
:103690001A68194B1B689A4202D302F01BF826E203
:1036A00001F0D0FF194B93ED007A194BD3ED007A5E
:1036B000B4EEE77AF1EE10FA36DD06E001F0C2FF73
:1036C0000A2002F087FD01F0F5FD104B93ED007A22
:1036D0000F4BD3ED007AB4EEE77AF1EE10FAEDDCA1
:1036E00040E000BF55010020570100205801002094
:1036F00040000020F00600206C0100209C07002004
:10370000C0040020EC060020DC060020CC060020CF
:103710003800002056010020C4040020A40200202C
:103720000004002094020020C34B93ED007AC34BA9
:10373000D3ED007AB4EEE77AF1EE10FA12D506E096
:1037400001F080FF0A2002F045FD01F095FDBA4B23
:1037500093ED007AB94BD3ED007AB4EEE77AF1EE4F
:1037600010FAEDD4B64B1B7883F00103DBB2002BCB
:1037700056D0B44B1B78002B52D0B34B1B7883F040
:103780000103DBB2002B4BD001F03AFD4FF47A700D
:1037900002F020FD01F08EFD4FF47A7002F01AFD68
:1037A00001F010FD322002F015FD01F083FD4FF411
:1037B0007A7002F00FFD01F005FD322002F00AFDE3
:1037C00001F01EFD4FF4FA6002F004FD01F0FAFC76
:1037D000322002F0FFFC01F06DFD41F6583002F09E
:1037E000F9FC01F00DFD41F2941002F0F3FC01F040
:1037F00029FF03E001F026FF01F03EFD8E4B93ED23
:10380000007A8E4BD3ED007AB4EEE77AF1EE10FA3F
:10381000F0D401F0F5FC4FF4967002F0DBFC66E1A9
:10382000874B1B78002B0ED0864B1B78002B0AD0C1
:10383000864B1B78002B06D001F0E2FC4FF47A7027
:1038400002F0C8FC53E17F4B1B7883F00103DBB22D
:10385000002B00F0578101F0D3FC4FF47A7002F096
:10386000B9FC01F009FD41F2883002F0B3FC724B63
:1038700093ED007A714BD3ED007AB4EEE77AF1EE76
:1038800010FA04DC3EE101F0DDFE01F013FD6A4BAD
:1038900093ED007A694BD3ED007AB4EEE77AF1EE5E
:1038A00010FAF0DC2EE16A4B1B68012B40F02A81F4
:1038B000684B1A68684B1B689A421AD8674B1A689B
:1038C000654B1B689A4214D8654B1A68624B1B689B
:1038D0009A420ED8634B1A685F4B1B689A4208D80D
:1038E000614B1A685C4B1B689A4202D801F0F2FEE9
:1038F000FDE001F0A7FE504B93ED007A4F4BD3ED66
:10390000007AB4EEE77AF1EE10FA13DD06E001F08A
:1039100099FE0A2002F05EFC01F0CCFC464B93EDD0
:10392000007A464BD3ED007AB4EEE77AF1EE10FA66
:10393000EDDC1DE0404B93ED007A404BD3ED007A77
:10394000B4EEE77AF1EE10FA12D506E001F07AFE55
:103950000A2002F03FFC01F08FFC374B93ED007A18
:10396000364BD3ED007AB4EEE77AF1EE10FAEDD4EF
:10397000334B1B7883F00103DBB2002B76D0314B45
:103980001B78002B72D0304B1B7883F00103DBB225
:10399000002B6BD001F034FC4FF47A7002F01AFC6B
:1039A00001F088FC4FF47A7002F014FC01F00AFC7C
:1039B000322002F00FFC01F023FC4FF4FA6002F019
:1039C00009FC01F077FC4FF47A7002F003FC01F07F
:1039D000F9FB322002F0FEFB01F012FC4FF4FA601A
:1039E00002F0F8FB01F0EEFB322002F0F3FB01F0F5
:1039F00061FC41F6583002F0EDFB01F001FC41F2B0
:103A0000941002F0E7FB01F01DFE03E001F01AFE46
:103A100001F032FC084B93ED007A084BD3ED007AAD
:103A2000B4EEE77AF1EE10FAF0D401F0E9FB4FF4CE
:103A3000967002F0CFFB5AE0CC0600203800002040
:103A40005501002057010020560100205801002098
:103A500040000020F00600206C0100209C070020A0
:103A6000C0040020EC060020DC060020374B1B7849
:103A7000002B0ED0364B1B78002B0AD0354B1B7811
:103A8000002B06D001F0BCFB4FF47A7002F0A2FBD1
:103A90002DE02F4B1B7883F00103DBB2002B31D0DC
:103AA00001F0AEFB4FF47A7002F094FB01F0E4FBFE
:103AB00041F2883002F08EFB274B93ED007A274BC2
:103AC000D3ED007AB4EEE77AF1EE10FA04DC19E0F7
:103AD00001F0B8FD01F0EEFB1F4B93ED007A1F4B98
:103AE000D3ED007AB4EEE77AF1EE10FAF0DC00BF25
:103AF00008E0002220211A4803F08CFD01F062FB4F
:103B0000FDF739BC00BFFDF736BC00BFFDF733BC85
:103B100000BFFDF730BC00BFFDF72DBC00BFFDF7B7
:103B20002ABC00BFFDF727BC00BFFDF724BC00BFC7
:103B3000FDF721BC00BFFDF71EBC00BFFDF71BBC9D
:103B400000BFFDF718BC00BFFDF715BC55010020F4
:103B50005701002058010020CC060020380000202A
:103B60000000024080B594B000AF07F11C0334227E
:103B70000021184607F003FD07F1080300221A6030
:103B80005A609A60DA601A6100237B60294A294BE7
:103B90001B6C43F080531364264B1B6C03F0805363
:103BA0007B607B6800233B60234A234B1B6843F404
:103BB00040431360204B1B6803F440433B603B6869
:103BC0000223FB610123BB621023FB6202237B63A0
:103BD0000023BB630823FB63A0233B6402237B64B5
:103BE0000223BB640223FB6407F11C03184604F0A4
:103BF0009DFF0346002B01D001F072FD0F23BB6037
:103C00000223FB6000233B614FF4A0537B614FF420
:103C1000A053BB6107F108030521184604F0B6FC68
:103C20000346002B01D001F05BFD00BF5037BD46BD
:103C300080BD00BF003802400070004080B500AF7A
:103C4000204B214A1A601F4B00225A601D4B002254
:103C50009A601C4B00221A611A4B00221A76194BEB
:103C6000002283F82020174B0022DA62154B174AF6
:103C70009A62144B0022DA60124B0122DA61114B76
:103C8000002283F830200F4B01225A610D4802F0C8
:103C9000C3FA0346002B01D001F022FD0C4B012298
:103CA0001A600B4B01225A60094B00229A600849A6
:103CB000044802F04DFC0346002B01D001F010FD3A
:103CC00000BF80BD0C040020002001400100000F57
:103CD0005C01002080B500AF124B134A1A60114BF3
:103CE000124A5A600F4B00229A600E4B0022DA6093
:103CF0000C4B4FF480421A610A4B00225A61094B67
:103D000000229A61074B0022DA61064B00221A62F8
:103D1000044803F0B1FC0346002B01D001F0E0FCA5
:103D200000BF80BDF002002000580040A0860100C6
:103D300080B58CB000AF07F11C0300221A605A60F6
:103D40009A60DA601A6107F1140300221A605A605F
:103D50003B1D00221A605A609A60DA602F4B304A8D
:103D60001A602E4B4F225A602C4B00229A602B4B2C
:103D70004FF6FF72DA60294B00221A61274B0022AE
:103D80005A61264B00229A61244805F029F903461E
:103D9000002B01D001F0A4FC204805F0E3F9034614
:103DA000002B01D001F09CFC0423FB6160233B62EB
:103DB0000A237B620023FB6207F11C0319461748A4
:103DC00005F0B1FD0346002B01D001F089FC002372
:103DD0007B610023BB6107F1140319460F4806F00D
:103DE00011FB0346002B01D001F07AFC0A237B6013
:103DF0000123BB600023FB6000233B613B1D0422C9
:103E00001946064805F076FB0346002B01D001F069
:103E100067FC00BF3037BD4680BD00BF780600207C
:103E20000000014080B58AB000AF07F118030022FE
:103E30001A605A609A60DA6007F1100300221A6073
:103E40005A603B4600221A605A609A60DA602C4B36
:103E50004FF080421A602A4B50225A60284B0022B1
:103E60009A60274B4FF0FF32DA60254B00221A612F
:103E7000234B00229A61224805F0B2F80346002B3A
:103E800001D001F02DFC4FF48053BB6107F1180302
:103E900019461B4805F090FC0346002B01D001F0A9
:103EA0001FFC174805F05EF90346002B01D001F016
:103EB00017FC00233B6100237B6107F110031946C7
:103EC0000F4806F09FFA0346002B01D001F008FCD2
:103ED00000233B6001237B600023BB600523FB6064
:103EE0003B4600221946064805F004FB0346002B1A
:103EF00001D001F0F5FB00BF2837BD4680BD00BFF3
:103F0000F406002080B58CB000AF07F11C0300223E
:103F10001A605A609A60DA601A6107F1140300228D
:103F20001A605A603B1D00221A605A609A60DA607B
:103F30002D4B2E4A1A602C4B4F225A602A4B0022DE
:103F40009A60294B4FF6FF72DA60274B00221A6104
:103F5000254B00229A61244805F042F80346002BC5
:103F600001D001F0BDFB204805F0FCF80346002B12
:103F700001D001F0B5FB0423FB6160233B620A23FF
:103F80007B620023FB6207F11C031946164805F00B
:103F9000CAFC0346002B01D001F0A2FB00237B6189
:103FA0000023BB6107F1140319460F4806F02AFAF3
:103FB0000346002B01D001F093FB0A237B60012311
:103FC000BB600023FB6000233B613B1D04221946BC
:103FD000054805F08FFA0346002B01D001F080FB65
:103FE00000BF3037BD4680BDAC0300200004004058
:103FF00080B58CB000AF07F11C0300221A605A6034
:104000009A60DA601A6107F1140300221A605A609C
:104010003B1D00221A605A609A60DA602D4B2E4ACE
:104020001A602C4B4F225A602A4B00229A60294B6F
:104030004FF6FF72DA60274B00221A61254B0022EF
:104040009A61244804F0CCFF0346002B01D001F014
:1040500047FB204805F086F80346002B01D001F00D
:104060003FFB0423FB6160233B620A237B62002346
:10407000FB6207F11C031946164805F054FC034681
:10408000002B01D001F02CFB00237B610023BB61DE
:1040900007F1140319460F4806F0B4F90346002B44
:1040A00001D001F01DFB0A237B600123BB600023CC
:1040B000FB6000233B613B1D04221946054805F0C7
:1040C00019FA0346002B01D001F00AFB00BF30377C
:1040D000BD4680BD440200200008004080B58AB083
:1040E00000AF07F1180300221A605A609A60DA6084
:1040F00007F1100300221A605A603B4600221A6042
:104100005A609A60DA602B4B2B4A1A60294B502276
:104110005A60284B00229A60264B4FF0FF32DA603B
:10412000244B00221A61234B00229A61214804F09B
:1041300057FF0346002B01D001F0D2FA4FF4805311
:10414000BB6107F1180319461A4805F035FB034611
:10415000002B01D001F0C4FA164805F003F803461D
:10416000002B01D001F0BCFA00233B6100237B61EE
:1041700007F1100319460F4806F044F90346002BD7
:1041800001D001F0ADFA00233B6001237B600023E6
:10419000BB600523FB603B4600221946054805F03D
:1041A000A9F90346002B01D001F09AFA00BF283785
:1041B000BD4680BD64030020000C004080B58CB07B
:1041C00000AF07F11C0300221A605A609A60DA609F
:1041D0001A6107F1140300221A605A603B1D002285
:1041E0001A605A609A60DA602F4B304A1A602E4B80
:1041F0004F225A602C4B00229A602B4B4FF6FF72D5
:10420000DA60294B00221A61274B00225A61264BA3
:1042100000229A61244804F0E3FE0346002B01D0FB
:1042200001F05EFA204804F09DFF0346002B01D008
:1042300001F056FA0423FB6160233B620A237B6290
:104240000023FB6207F11C031946174805F06BFBBE
:104250000346002B01D001F043FA00237B610023C9
:10426000BB6107F1140319460F4806F0CBF803466B
:10427000002B01D001F034FA0A237B600123BB60DC
:104280000023FB6000233B613B1D042219460648C6
:1042900005F030F90346002B01D001F021FA00BFF0
:1042A0003037BD4680BD00BFFC0100200004014046
:1042B00080B588B000AF3B1D00221A605A609A603A
:1042C000DA601A615A619A611E4B1F4A1A601D4BCF
:1042D0004F225A601B4B00229A601A4B44F61F6211
:1042E000DA60184B00221A61164B00229A611548B9
:1042F00004F076FE0346002B01D001F0F1F91148DD
:1043000004F0BDFE0346002B01D001F0E9F9602363
:104310007B6042F21073BB600023FB6000237B6173
:104320003B1D00221946074805F080F90346002B83
:1043300001D001F0D5F9034801F06AFC00BF203735
:10434000BD4680BDB00200200044014080B588B069
:1043500000AF3B1D00221A605A609A60DA601A6151
:104360005A619A611E4B1F4A1A601D4BC7225A6040
:104370001B4B00229A601A4B49F63F42DA60184BF9
:1043800000221A61164B00229A61154804F028FE9B
:104390000346002B01D001F0A3F9114804F06FFE91
:1043A0000346002B01D001F09BF960237B600023C2
:1043B000BB600023FB6000237B613B1D002219468C
:1043C000074805F033F90346002B01D001F088F9C6
:1043D000034801F01DFC00BF2037BD4680BD00BF73
:1043E000B80500200048014080B588B000AF3B1DF3
:1043F00000221A605A609A60DA601A615A619A6102
:104400001E4B1F4A1A601D4B4F225A601B4B002245
:104410009A601A4B44F61F62DA60184B00221A6148
:10442000164B00229A61154804F0DAFD0346002B72
:1044300001D001F055F9114804F021FE0346002B8C
:1044400001D001F04DF960237B6042F21073BB6034
:104450000023FB6000237B613B1D002219460748B7
:1044600005F0E4F80346002B01D001F039F90348C8
:1044700001F0CEFB00BF2037BD4680BDD404002034
:10448000001C004080B500AF114B124A1A60104B5F
:104490004FF416525A600E4B00229A600C4B0022C9
:1044A000DA600B4B00221A61094B0C225A61084B4F
:1044B00000229A61064B0022DA61054806F032F8C4
:1044C0000346002B01D001F00BF900BF80BD00BFF7
:1044D000140500200010014080B500AF114B124AB6
:1044E0001A60104B4FF4E1325A600E4B00229A6072
:1044F0000C4B0022DA600B4B00221A61094B0C2294
:104500005A61084B00229A61064B0022DA61054885
:1045100006F008F80346002B01D001F0E1F800BFD7
:1045200080BD00BF480700200044004080B582B035
:1045300000AF00237B600C4A0B4B1B6B43F48003E2
:104540001363094B1B6B03F480037B607B680022C1
:1045500000213A2002F005FB3A2002F01EFB00BFCA
:104560000837BD4680BD00BF0038024080B58AB024
:1045700000AF07F1140300221A605A609A60DA60F3
:104580001A6100233B61484A474B1B6B43F004030D
:104590001363454B1B6B03F004033B613B69002332
:1045A000FB60414A404B1B6B43F0800313633E4B5F
:1045B0001B6B03F08003FB60FB680023BB603A4A7F
:1045C000394B1B6B43F001031363374B1B6B03F039
:1045D0000103BB60BB6800237B60334A324B1B6B1B
:1045E00043F002031363304B1B6B03F002037B6049
:1045F0007B68002220212D4803F00CF800224EF2A7
:1046000002012B4803F006F84FF400537B61294B5D
:10461000BB610023FB6107F114031946264802F031
:1046200067FE20237B610123BB610023FB61002324
:104630003B6207F1140319461C4802F059FE4EF282
:1046400002037B610123BB610023FB6100233B620A
:1046500007F114031946164802F04AFE4FF480731E
:104660007B61164BBB610023FB6107F11403194604
:10467000114802F03DFE10237B610023BB61002343
:10468000FB6107F114031946094802F031FE0022CC
:104690000021282002F065FA282002F07EFA00BFEF
:1046A0002837BD4680BD00BF0038024000000240F0
:1046B0000004024000002110000802400000111018
:1046C0002DE9F04F91B00CAF01F078FD02464C4B54
:1046D0001B68D31A632B40F28D8001F06FFD0246F8
:1046E000474B1A600421474805F060F90246464BE3
:1046F0001A600421454805F059F90246444B1A60F6
:104700000421444805F052F90246434B1A60042143
:10471000424805F04BF90246414B1A603A4B1B6880
:10472000404AA2FB03235B0907EE903AF8EE677A52
:104730003D4BC3ED007A364B1B683A4AA2FB03237C
:104740005B0907EE903AF8EE677A384BC3ED007AD2
:10475000314B1B68334AA2FB03235B0907EE903AF7
:10476000F8EE677A324BC3ED007A2D4B1B682D4A69
:10477000A2FB03235B0907EE903AF8EE677A2D4B14
:10478000C3ED007A204B1B68FB60274B1B68184663
:10479000FBF7FAFE82468B461D4B1E68234B1B68B7
:1047A0001846FBF7F1FE04460D461B4B1A68BA602B
:1047B0001F4B1B681846FBF7E7FE80468946184BDF
:1047C000186878601B4B1B681846FBF7DDFE024635
:1047D0000B46CDE90A2378680890CDE90689BA68C6
:1047E0000492CDE90245009652465B46F9681248AC
:1047F00006F0CEFE00BF1437BD46BDE8F08F00BF07
:10480000C8060020780600208C010020FC01002052
:1048100094070020AC03002008040020440200207C
:104820005C04002009CB3D8DF0030020F80300203C
:1048300048030020F805002014C70008000000000D
:104840002DE9B043CCB006AF3B1D18604FF000031C
:104850004FF00004C7E942344FF000034FF000046A
:10486000C7E940344FF000034FF00004C7E93E347D
:104870000023C7F814314FF000034FF00004C7E9DC
:104880003C344FF000034FF00004C7E93A344FF0D6
:1048900000034FF00004C7E938344FF000034FF035
:1048A0000004C7E936343B1D1B681B68B3F1804F19
:1048B0002DD1A14B1B7883F00103DBB2002B26D056
:1048C0009E4B1B68012B0BD13B1D1B681B685B6B50
:1048D0009B4A1360994B1B680133984A136016E09A
:1048E000964B1B68B3F5E17F0CD13B1D1B681B6821
:1048F0005B6B934A5360914B01221A608E4B0122ED
:104900001A7004E08D4B1B6801338C4A13603B1D09
:104910001B681B688B4A93422DD18B4B1B7883F00D
:104920000103DBB2002B26D0884B1B68012B0BD177
:104930003B1D1B681B685B6B854A1360834B1B68C0
:104940000133824A136016E0804B1B68B3F5E17FA8
:104950000CD13B1D1B681B685B6B7D4A53607B4B16
:1049600001221A60784B01221A7004E0774B1B6811
:104970000133764A1360704B1B78002B00F0C48023
:104980006F4B5A686E4B1B689A4207D96C4B5A683A
:104990006B4B1B68D31A6F4A13600AE0684B5A6866
:1049A000674B1B68D31A03F5742303F51073694A28
:1049B0001360684B1B68684A13604FF00003674C34
:1049C000C7E94234D7E942234FF000006349FBF7BF
:1049D00059FF03460C46C7E940345E4B1B68184636
:1049E000FBF7B0FDD7E94023FBF722FE03460C4658
:1049F000C7E93434D7E934234DA1D1E90001FBF7ED
:104A000041FF03460C4618462146FCF723F80246B0
:104A1000534B1A60534B93ED007A514BD3ED007A10
:104A200077EE677A504BC3ED007A504B93ED007AE6
:104A30004D4BD3ED007A77EE277A4C4BC3ED007ADD
:104A40004B4B1B681846FBF79FFD4FF00002494B8C
:104A5000FBF7EEFD03460C4625461C46434B1B6800
:104A60001846FBF791FD02460B4620462946FBF708
:104A7000DFFD03460C4618462146FBF7EBFF0246D6
:104A80003D4B1A603D4B93ED007A374BD3ED007AE6
:104A900027EE277A384BD3ED007A77EE277A384B1A
:104AA000C3ED007A374B1B685B6B354AD2ED007A59
:104AB000FDEEE77A17EE902A13441A46324B1A603D
:104AC000274B1B681846FBF75FFD80468946264B3F
:104AD0001B681846FBF758FD04460D46284B1B681B
:104AE0001846FBF751FD02460B4627490968049119
:104AF000CDE90223CDE9004542464B46234806F066
:104B000047FD0D4B00221A700F4B1B78002B00F055
:104B1000F0800F4B5A680E4B1B689A4238D90C4BE9
:104B20005A680B4B1B68D31AC7F814313BE000BF1F
:104B300000000000882A51414001002000000020B0
:104B400038010020000C00404C0100200C00002027
:104B50004401002050010020540400200000F03FD8
:104B6000400700200400002090070020A40300203C
:104B7000200000200000E03FF80100201800002085
:104B80008C020020B00200200800002070C700083E
:104B9000634B5A68624B1B68D31A03F5742303F501
:104BA0001073C7F814314FF000035E4CC7E93C3472
:104BB000D7E93C234FF000005A49FBF763FE034658
:104BC0000C46C7E93A34D7F81401FBF7BBFCD7E928
:104BD0003A23FBF72DFD03460C46C7E93834D7E9E5
:104BE00038234DA1D1E90001FBF74CFE03460C46EA
:104BF00018462146FBF72EFF02464B4B1A604B4BE3
:104C000093ED007A484BD3ED007A77EE677A484B04
:104C1000C3ED007A474B93ED007A454BD3ED007A14
:104C200077EE277A434BC3ED007A434B1B68184657
:104C3000FBF7AAFC4FF00002404BFBF7F9FC0346E0
:104C40000C4625461C463B4B1B681846FBF79CFC54
:104C500002460B4620462946FBF7EAFC03460C4673
:104C600018462146FBF7F6FE0246354B1A60354BD7
:104C700093ED007A2E4BD3ED007A27EE277A304B56
:104C8000D3ED007A77EE277A2F4BC3ED007A2F4BC6
:104C90001B685B6B2C4AD2ED007AFDEEE77A17EECB
:104CA000902A13441A462A4B1A601F4B1B68184659
:104CB000FBF76AFC804689461D4B1B681846FBF7CC
:104CC00063FC04460D46204B1B681846FBF75CFC52
:104CD00002460B461E4909680491CDE90223CDE93D
:104CE000004542464B461B4806F052FC1A4B002238
:104CF0001A701A4B1B681A4A12685A63134B1B68C6
:104D0000134A12685A6300BF07F58C77BD46BDE8A9
:104D1000B08300BFAFF3008000000000882A51413B
:104D2000440100200000F03F440700201000002054
:104D30004002002098070020200000200000E03FF3
:104D4000D00400201C000020BC060020D404002059
:104D500014000020ACC700084C010020B002002065
:104D60000800002080B483B000AF0346FB80084BEE
:104D70001B78002B03D0064B00221A7002E0044B74
:104D800001221A7000BF0C37BD465DF8047B7047E6
:104D90005401002080B400AFC64BD3ED007AB2EED0
:104DA000087AF4EEC77AF1EE10FA1FD8C24BD3EDB1
:104DB000007AB2EE087AF4EEC77AF1EE10FA15D85E
:104DC000BE4BD3ED007AB2EE087AF4EEC77AF1EE7C
:104DD00010FA0BDDBA4BD3ED007AB2EE087AF4EE9E
:104DE000C77AF1EE10FA01DD0123C0E1B34BD3ED38
:104DF000007AB2EE087AF4EEC77AF1EE10FA1FDD0F
:104E0000AD4BD3ED007AB2EE087AF4EEC77AF1EE4C
:104E100010FA15D8A74BD3ED007AB2EE087AF4EE6B
:104E2000C77AF1EE10FA0BDDA54BD3ED007AB2EEA6
:104E3000087AF4EEC77AF1EE10FA01DD022396E16A
:104E40009E4BD3ED007AB2EE087AF4EEC77AF1EE1B
:104E500010FA29D8984BD3ED007AB2EE087AF4EE26
:104E6000C77AF1EE10FA1FD8934BD3ED007AB1EE6A
:104E7000087AF4EEC77AF1EE10FA15DD8D4BD3ED1A
:104E8000007AB2EE087AF4EEC77AF1EE10FA0BDD92
:104E90008B4BD3ED007AB2EE087AF4EEC77AF1EEDE
:104EA00010FA01DD032362E1844BD3ED007AB2EE08
:104EB000087AF4EEC77AF1EE10FA1FDD7E4BD3EDDF
:104EC000007AB2EE087AF4EEC77AF1EE10FA15DD48
:104ED000784BD3ED007AB2EE087AF4EEC77AF1EEB1
:104EE00010FA0BDD764BD3ED007AB2EE087AF4EED1
:104EF000C77AF1EE10FA01DD042338E16F4BD3EDF0
:104F0000007AB2EE087AF4EEC77AF1EE10FA1FDDFD
:104F1000694BD3ED007AB2EE087AF4EEC77AF1EE7F
:104F200010FA15DD634BD3ED007AB2EE087AF4EE99
:104F3000C77AF1EE10FA0BD8614BD3ED007AB2EEDE
:104F4000087AF4EEC77AF1EE10FA01DD05230EE1DE
:104F50005A4BD3ED007AB2EE087AF4EEC77AF1EE4E
:104F600010FA1FD8544BD3ED007AB1EE087AF4EE64
:104F7000C77AF1EE10FA15DD4E4BD3ED007AB1EEA3
:104F8000087AF4EEC77AF1EE10FA0BDD4C4BD3ED54
:104F9000007AB1EE087AF4EEC77AF1EE10FA01DD8C
:104FA0000623E4E0454BD3ED007AB2EE087AF4EE46
:104FB000C77AF1EE10FA1FDB3F4BD3ED007AB2EE69
:104FC000087AF4EEC77AF1EE10FA15DB394BD3ED1F
:104FD000007AB2EE087AF4EEC77AF1EE10FA0BD846
:104FE000374BD3ED007AB2EE087AF4EEC77AF1EEE1
:104FF00010FA01D80723BAE0304BD3ED007AB2EEB5
:10500000087AF4EEC77AF1EE10FA1FDB2A4BD3EDE3
:10501000007AB2EE087AF4EEC77AF1EE10FA15DBF8
:10502000244BD3ED007AB2EE087AF4EEC77AF1EEB3
:1050300010FA0BDD224BD3ED007AB2EE087AF4EED3
:10504000C77AF1EE10FA01D8082390E01B4BD3ED9C
:10505000007AB2EE087AF4EEC77AF1EE10FA31D89F
:10506000154BD3ED007AB2EE087AF4EEC77AF1EE82
:1050700010FA27DD0F4BD3ED007AB2EE087AF4EE8A
:10508000C77AF1EE10FA1DDD0D4BD3ED007AB2EECA
:10509000087AF4EEC77AF1EE10FA13D8084BD3ED84
:1050A000007AB1EE087AF4EEC77AF1EE10FA09DD73
:1050B00009235CE0F805002048030020F8030020E5
:1050C000F00300202C4BD3ED007AB2EE087AF4EE18
:1050D000C77AF1EE10FA1FD8284BD3ED007AB1EE63
:1050E000087AF4EEC77AF1EE10FA15D8244BD3ED16
:1050F000007AB2EE087AF4EEC77AF1EE10FA0BDD20
:10510000204BD3ED007AB2EE087AF4EEC77AF1EED6
:1051100010FA01DD0A232AE0174BD3ED007AB2EE34
:10512000087AF4EEC77AF1EE10FA1FD8134BD3EDDC
:10513000007AB2EE087AF4EEC77AF1EE10FA15DDD5
:105140000F4BD3ED007AB2EE087AF4EEC77AF1EEA7
:1051500010FA0BDD0B4BD3ED007AB1EE087AF4EECA
:10516000C77AF1EE10FA01D80B2300E000231846AD
:10517000BD465DF8047B7047F8030020480300201B
:10518000F8050020F003002080B500AF01220221C5
:105190000B4802F03FFA00224FF40041084802F0A9
:1051A00039FA01224FF48041054802F033FA002217
:1051B0004FF40051024802F02DFA00BF80BD00BF3D
:1051C0000004024080B500AF002202210B4802F02B
:1051D00021FA00224FF40041084802F01BFA002295
:1051E0004FF48041054802F015FA00224FF40051B7
:1051F000024802F00FFA00BF80BD00BF0004024069
:1052000080B500AF002202210B4802F003FA012210
:105210004FF40041084802F0FDF900224FF48041AC
:10522000054802F0F7F901224FF40051024802F05C
:10523000F1F900BF80BD00BF0004024080B500AF9F
:10524000012202210B4802F0E5F900224FF400414F
:10525000084802F0DFF900224FF48041054802F0CF
:10526000D9F900224FF40051024802F0D3F900BFEF
:1052700080BD00BF0004024080B500AF00220221C3
:105280000B4802F0C7F901224FF40041084802F030
:10529000C1F900224FF48041054802F0BBF9002219
:1052A0004FF40051024802F0B5F900BF80BD00BFC5
:1052B0000004024080B500AF002202210B4802F03A
:1052C000A9F900224FF40041084802F0A3F9002296
:1052D0004FF48041054802F09DF901224FF400513E
:1052E000024802F097F900BF80BD00BF00040240F1
:1052F00080B582B000AF78607B68012B0FD17A68EF
:105300007049714806F05CF96F48FAF781FF03466F
:105310009AB264236C496D4805F051F9CEE07B6880
:10532000022B0FD17A686749674806F049F9664849
:10533000FAF76EFF03469AB264236349634805F0A7
:105340003EF9BBE07B68032B0FD17A685D495E486C
:1053500006F036F95C48FAF75BFF03469AB264231D
:1053600059495A4805F02BF9A8E07B68042B0FD166
:105370007A685449544806F023F95348FAF748FF2D
:1053800003469AB264235049504805F018F995E055
:105390007B68052B0FD17A684A494B4806F010F913
:1053A0004948FAF735FF03469AB26423464947480D
:1053B00005F005F982E07B68062B0FD17A68414938
:1053C000414806F0FDF84048FAF722FF03469AB23A
:1053D00064233D493D4805F0F2F86FE07B68072BF8
:1053E0000FD17A683749384806F0EAF83648FAF7B4
:1053F0000FFF03469AB264233349344805F0DFF8BF
:105400005CE07B68082B0FD17A682E492E4806F0A5
:10541000D7F82D48FAF7FCFE03469AB264232A49CE
:105420002A4805F0CCF849E07B68092B0FD17A684F
:105430002449254806F0C4F82348FAF7E9FE034654
:105440009AB264232049214805F0B9F836E07B6818
:105450000A2B10D11C4B1E4A1068186012791A7161
:105460001948FAF7D5FE03469AB26423164917483D
:1054700005F0A5F822E07B680B2B10D1124B154AE2
:105480001068186012791A710F48FAF7C1FE0346C6
:105490009AB264230C490D4805F091F80EE07A6841
:1054A0000D49094806F08CF80748FAF7B1FE0346A3
:1054B0009AB264230449054805F081F800BF083713
:1054C000BD4680BDE8C70008540500201405002033
:1054D000F0C70008F8C7000800C8000880B500AF92
:1054E000074B084A106818600548FAF791FE034612
:1054F0009AB264230249044805F061F800BF80BDF8
:105500005405002040C800081405002090B583B061
:1055100002AF444B01221A604249434801F018F897
:10552000414800F0BDFE05213F4800F07FFF0346E3
:10553000002B05D13C4800F0FDFF02463B4B1A60B2
:10554000384B04221A603749374801F001F83648D1
:1055500000F0A6FE0521344800F068FF0346002B4A
:1055600005D1314800F0E6FF0246314B1A602D4B61
:1055700008221A602B492C4800F0EAFF2A4800F064
:105580008FFE0521284800F051FF0346002B05D16E
:10559000254800F0CFFF0246264B1A60214B0B2214
:1055A0001A602049204800F0D3FF1F4800F078FE21
:1055B00005211D4800F03AFF0346002B05D11A488B
:1055C00000F0B8FF02461C4B1A60164B0A221A6004
:1055D0001449154800F0BCFF134800F061FE052196
:1055E000114800F023FF0346002B05D10E4800F0C0
:1055F000A1FF0246114B1A600C4B19680C4B18683E
:105600000C4B1C680C4B1B680C4A126801920093EF
:10561000234602460A4805F0BBFF00BF0437BD46DB
:1056200090BD00BF5C0100200C040020F0060020AB
:105630009C070020C0040020EC060020DC060020AF
:1056400044C800082DE9B04384B004AF1B48FBF701
:105650004BFD1B48FBF7ACFD052000F0BBFD174BD5
:105660001B68184A1360154B5B68174A1360134B8D
:105670009B68164A1360134B1B681846FAF784FFA1
:1056800080468946104B1B681846FAF77DFF044692
:105690000D460E4B1B681846FAF776FF02460B467E
:1056A000CDE90223CDE9004542464B46084805F0C6
:1056B0006FFF00BFBD46BDE8B08300BF50030020B0
:1056C000A0070020CC060020FC0300205C03002083
:1056D00090C8000880B500AFFFF774FD00BF80BD23
:1056E00080B400AF00BFBD465DF8047B704700008A
:1056F00080B582B000AF00237B60104A0F4B5B6C1B
:1057000043F4804353640D4B5B6C03F480437B6034
:105710007B6800233B60094A084B1B6C43F08053B5
:105720001364064B1B6C03F080533B603B680720FF
:1057300001F00CFA00BF0837BD4680BD00380240BA
:1057400080B58CB000AF786007F11C0300221A60AE
:105750005A609A60DA601A617B681B68314A93422A
:105760005BD10023BB61304A2F4B5B6C43F48073E9
:1057700053642D4B5B6C03F48073BB61BB690023E6
:105780007B61294A284B1B6B43F004031363264BB0
:105790001B6B03F004037B617B6900233B61224A9E
:1057A000214B1B6B43F0010313631F4B1B6B03F077
:1057B00001033B613B690023FB601B4A1A4B1B6BD7
:1057C00043F002031363184B1B6B03F00203FB60EF
:1057D000FB680323FB6103233B6200237B6207F129
:1057E0001C031946114801F083FD1223FB610323BA
:1057F0003B6200237B6207F11C0319460C4801F051
:1058000077FD0123FB6103233B6200237B6207F1E9
:105810001C031946074801F06BFD00BF3037BD4639
:1058200080BD00BF00200140003802400008024057
:10583000000002400004024080B58AB000AF7860EA
:1058400007F1140300221A605A609A60DA601A6144
:105850007B681B68194A93422CD100233B61184A8C
:10586000174B1B6B43F002031363154B1B6B03F0C9
:1058700002033B613B694FF481637B611223BB618F
:105880000123FB6103233B6204237B6207F11403C2
:1058900019460C4801F02CFD0023FB60084A084B18
:1058A0001B6C43F480031364054B1B6C03F48003EF
:1058B000FB60FB6800BF2837BD4680BD0058004034
:1058C000003802400004024080B596B000AF786016
:1058D00007F1440300221A605A609A60DA601A6184
:1058E0007B681B689D4A93422DD100233B649C4AF0
:1058F0009B4B5B6C43F001035364994B5B6C03F06F
:1059000001033B643B6C0023FB63954A944B1B6B88
:1059100043F001031363924B1B6B03F00103FB6322
:10592000FB6B4FF400737B640223BB640023FB64B6
:1059300000233B6501237B6507F144031946894831
:1059400001F0D6FC57E17B681B68B3F1804F35D17D
:105950000023BB63824A824B1B6C43F00103136438
:105960007F4B1B6C03F00103BB63BB6B00237B63AA
:105970007B4A7B4B1B6B43F001031363784B1B6B20
:1059800003F001037B637B6B4FF400437B640223D2
:10599000BB640023FB6400233B6501237B6507F1A7
:1059A000440319466F4801F0A3FC002200211C208B
:1059B00001F0D7F81C2001F0F0F81CE17B681B68AF
:1059C000694A93422CD100233B63654A644B1B6CAC
:1059D00043F002031364624B1B6C03F002033B634E
:1059E0003B6B0023FB625E4A5D4B1B6B43F0010384
:1059F00013635B4B1B6B03F00103FB62FB6A8023A9
:105A00007B640223BB640023FB6400233B65022309
:105A10007B6507F144031946524801F069FCEAE04E
:105A20007B681B68514A93422CD10023BB624C4ACD
:105A30004B4B1B6C43F004031364494B1B6C03F08A
:105A40000403BB62BB6A00237B62454A444B1B6B69
:105A500043F002031363424B1B6B03F002037B62B0
:105A60007B6A80237B640223BB640023FB640023E6
:105A70003B6502237B6507F1440319463C4801F06E
:105A800037FCB8E07B681B683A4A934234D1002364
:105A90003B62334A324B1B6C43F008031364304BB8
:105AA0001B6C03F008033B623B6A0023FB612C4A3A
:105AB0002B4B1B6B43F001031363294B1B6B03F050
:105AC0000103FB61FB6901237B640223BB640023A8
:105AD000FB6400233B6502237B6507F14403194601
